{
  "contractName": "ExchangeRates",
  "abi": [
    {
      "inputs": [
        {
          "internalType": "address",
          "name": "_owner",
          "type": "address"
        },
        {
          "internalType": "address",
          "name": "_oracle",
          "type": "address"
        },
        {
          "internalType": "uint256",
          "name": "_rateStalePeriod",
          "type": "uint256"
        },
        {
          "internalType": "bytes32[]",
          "name": "_currencyKeys",
          "type": "bytes32[]"
        },
        {
          "internalType": "uint256[]",
          "name": "_newRates",
          "type": "uint256[]"
        }
      ],
      "payable": false,
      "stateMutability": "nonpayable",
      "type": "constructor"
    },
    {
      "anonymous": false,
      "inputs": [
        {
          "indexed": false,
          "internalType": "address",
          "name": "newOracle",
          "type": "address"
        }
      ],
      "name": "OracleUpdated",
      "type": "event"
    },
    {
      "anonymous": false,
      "inputs": [
        {
          "indexed": false,
          "internalType": "address",
          "name": "oldOwner",
          "type": "address"
        },
        {
          "indexed": false,
          "internalType": "address",
          "name": "newOwner",
          "type": "address"
        }
      ],
      "name": "OwnerChanged",
      "type": "event"
    },
    {
      "anonymous": false,
      "inputs": [
        {
          "indexed": false,
          "internalType": "address",
          "name": "newOwner",
          "type": "address"
        }
      ],
      "name": "OwnerNominated",
      "type": "event"
    },
    {
      "anonymous": false,
      "inputs": [
        {
          "indexed": false,
          "internalType": "bytes32",
          "name": "currencyKey",
          "type": "bytes32"
        }
      ],
      "name": "RateDeleted",
      "type": "event"
    },
    {
      "anonymous": false,
      "inputs": [
        {
          "indexed": false,
          "internalType": "uint256",
          "name": "rateStalePeriod",
          "type": "uint256"
        }
      ],
      "name": "RateStalePeriodUpdated",
      "type": "event"
    },
    {
      "anonymous": false,
      "inputs": [
        {
          "indexed": false,
          "internalType": "bytes32[]",
          "name": "currencyKeys",
          "type": "bytes32[]"
        },
        {
          "indexed": false,
          "internalType": "uint256[]",
          "name": "newRates",
          "type": "uint256[]"
        }
      ],
      "name": "RatesUpdated",
      "type": "event"
    },
    {
      "constant": false,
      "inputs": [],
      "name": "acceptOwnership",
      "outputs": [],
      "payable": false,
      "stateMutability": "nonpayable",
      "type": "function"
    },
    {
      "constant": true,
      "inputs": [
        {
          "internalType": "bytes32",
          "name": "",
          "type": "bytes32"
        }
      ],
      "name": "currentRoundForRate",
      "outputs": [
        {
          "internalType": "uint256",
          "name": "",
          "type": "uint256"
        }
      ],
      "payable": false,
      "stateMutability": "view",
      "type": "function"
    },
    {
      "constant": false,
      "inputs": [
        {
          "internalType": "address",
          "name": "_owner",
          "type": "address"
        }
      ],
      "name": "nominateNewOwner",
      "outputs": [],
      "payable": false,
      "stateMutability": "nonpayable",
      "type": "function"
    },
    {
      "constant": true,
      "inputs": [],
      "name": "nominatedOwner",
      "outputs": [
        {
          "internalType": "address",
          "name": "",
          "type": "address"
        }
      ],
      "payable": false,
      "stateMutability": "view",
      "type": "function"
    },
    {
      "constant": true,
      "inputs": [],
      "name": "oracle",
      "outputs": [
        {
          "internalType": "address",
          "name": "",
          "type": "address"
        }
      ],
      "payable": false,
      "stateMutability": "view",
      "type": "function"
    },
    {
      "constant": true,
      "inputs": [],
      "name": "owner",
      "outputs": [
        {
          "internalType": "address",
          "name": "",
          "type": "address"
        }
      ],
      "payable": false,
      "stateMutability": "view",
      "type": "function"
    },
    {
      "constant": true,
      "inputs": [],
      "name": "rateStalePeriod",
      "outputs": [
        {
          "internalType": "uint256",
          "name": "",
          "type": "uint256"
        }
      ],
      "payable": false,
      "stateMutability": "view",
      "type": "function"
    },
    {
      "constant": false,
      "inputs": [
        {
          "internalType": "address",
          "name": "_oracle",
          "type": "address"
        }
      ],
      "name": "setOracle",
      "outputs": [],
      "payable": false,
      "stateMutability": "nonpayable",
      "type": "function"
    },
    {
      "constant": false,
      "inputs": [
        {
          "internalType": "uint256",
          "name": "_rateStalePeriod",
          "type": "uint256"
        }
      ],
      "name": "setRateStalePeriod",
      "outputs": [],
      "payable": false,
      "stateMutability": "nonpayable",
      "type": "function"
    },
    {
      "constant": false,
      "inputs": [
        {
          "internalType": "bytes32[]",
          "name": "currencyKeys",
          "type": "bytes32[]"
        },
        {
          "internalType": "uint256[]",
          "name": "newRates",
          "type": "uint256[]"
        },
        {
          "internalType": "uint256",
          "name": "timeSent",
          "type": "uint256"
        }
      ],
      "name": "updateRates",
      "outputs": [
        {
          "internalType": "bool",
          "name": "",
          "type": "bool"
        }
      ],
      "payable": false,
      "stateMutability": "nonpayable",
      "type": "function"
    },
    {
      "constant": false,
      "inputs": [
        {
          "internalType": "bytes32",
          "name": "currencyKey",
          "type": "bytes32"
        }
      ],
      "name": "deleteRate",
      "outputs": [],
      "payable": false,
      "stateMutability": "nonpayable",
      "type": "function"
    },
    {
      "constant": true,
      "inputs": [],
      "name": "getRateStalePeriod",
      "outputs": [
        {
          "internalType": "uint256",
          "name": "",
          "type": "uint256"
        }
      ],
      "payable": false,
      "stateMutability": "view",
      "type": "function"
    },
    {
      "constant": true,
      "inputs": [
        {
          "internalType": "bytes32",
          "name": "currencyKey",
          "type": "bytes32"
        }
      ],
      "name": "rateAndUpdatedTime",
      "outputs": [
        {
          "internalType": "uint256",
          "name": "rate",
          "type": "uint256"
        },
        {
          "internalType": "uint256",
          "name": "time",
          "type": "uint256"
        }
      ],
      "payable": false,
      "stateMutability": "view",
      "type": "function"
    },
    {
      "constant": true,
      "inputs": [
        {
          "internalType": "bytes32",
          "name": "currencyKey",
          "type": "bytes32"
        },
        {
          "internalType": "uint256",
          "name": "startingRoundId",
          "type": "uint256"
        },
        {
          "internalType": "uint256",
          "name": "startingTimestamp",
          "type": "uint256"
        },
        {
          "internalType": "uint256",
          "name": "timediff",
          "type": "uint256"
        }
      ],
      "name": "getLastRoundIdBeforeElapsedSecs",
      "outputs": [
        {
          "internalType": "uint256",
          "name": "",
          "type": "uint256"
        }
      ],
      "payable": false,
      "stateMutability": "view",
      "type": "function"
    },
    {
      "constant": true,
      "inputs": [
        {
          "internalType": "bytes32",
          "name": "currencyKey",
          "type": "bytes32"
        }
      ],
      "name": "getCurrentRoundId",
      "outputs": [
        {
          "internalType": "uint256",
          "name": "",
          "type": "uint256"
        }
      ],
      "payable": false,
      "stateMutability": "view",
      "type": "function"
    },
    {
      "constant": true,
      "inputs": [
        {
          "internalType": "bytes32",
          "name": "sourceCurrencyKey",
          "type": "bytes32"
        },
        {
          "internalType": "uint256",
          "name": "sourceAmount",
          "type": "uint256"
        },
        {
          "internalType": "bytes32",
          "name": "destinationCurrencyKey",
          "type": "bytes32"
        },
        {
          "internalType": "uint256",
          "name": "roundIdForSrc",
          "type": "uint256"
        },
        {
          "internalType": "uint256",
          "name": "roundIdForDest",
          "type": "uint256"
        }
      ],
      "name": "effectiveValueAtRound",
      "outputs": [
        {
          "internalType": "uint256",
          "name": "value",
          "type": "uint256"
        }
      ],
      "payable": false,
      "stateMutability": "view",
      "type": "function"
    },
    {
      "constant": true,
      "inputs": [
        {
          "internalType": "bytes32",
          "name": "currencyKey",
          "type": "bytes32"
        },
        {
          "internalType": "uint256",
          "name": "roundId",
          "type": "uint256"
        }
      ],
      "name": "rateAndTimestampAtRound",
      "outputs": [
        {
          "internalType": "uint256",
          "name": "rate",
          "type": "uint256"
        },
        {
          "internalType": "uint256",
          "name": "time",
          "type": "uint256"
        }
      ],
      "payable": false,
      "stateMutability": "view",
      "type": "function"
    },
    {
      "constant": true,
      "inputs": [
        {
          "internalType": "bytes32",
          "name": "currencyKey",
          "type": "bytes32"
        }
      ],
      "name": "lastRateUpdateTimes",
      "outputs": [
        {
          "internalType": "uint256",
          "name": "",
          "type": "uint256"
        }
      ],
      "payable": false,
      "stateMutability": "view",
      "type": "function"
    },
    {
      "constant": true,
      "inputs": [
        {
          "internalType": "bytes32[]",
          "name": "currencyKeys",
          "type": "bytes32[]"
        }
      ],
      "name": "lastRateUpdateTimesForCurrencies",
      "outputs": [
        {
          "internalType": "uint256[]",
          "name": "",
          "type": "uint256[]"
        }
      ],
      "payable": false,
      "stateMutability": "view",
      "type": "function"
    },
    {
      "constant": true,
      "inputs": [
        {
          "internalType": "bytes32",
          "name": "sourceCurrencyKey",
          "type": "bytes32"
        },
        {
          "internalType": "uint256",
          "name": "sourceAmount",
          "type": "uint256"
        },
        {
          "internalType": "bytes32",
          "name": "destinationCurrencyKey",
          "type": "bytes32"
        }
      ],
      "name": "effectiveValue",
      "outputs": [
        {
          "internalType": "uint256",
          "name": "value",
          "type": "uint256"
        }
      ],
      "payable": false,
      "stateMutability": "view",
      "type": "function"
    },
    {
      "constant": true,
      "inputs": [
        {
          "internalType": "bytes32",
          "name": "sourceCurrencyKey",
          "type": "bytes32"
        },
        {
          "internalType": "uint256",
          "name": "sourceAmount",
          "type": "uint256"
        },
        {
          "internalType": "bytes32",
          "name": "destinationCurrencyKey",
          "type": "bytes32"
        }
      ],
      "name": "effectiveValueAndRates",
      "outputs": [
        {
          "internalType": "uint256",
          "name": "value",
          "type": "uint256"
        },
        {
          "internalType": "uint256",
          "name": "sourceRate",
          "type": "uint256"
        },
        {
          "internalType": "uint256",
          "name": "destinationRate",
          "type": "uint256"
        }
      ],
      "payable": false,
      "stateMutability": "view",
      "type": "function"
    },
    {
      "constant": true,
      "inputs": [
        {
          "internalType": "bytes32",
          "name": "currencyKey",
          "type": "bytes32"
        }
      ],
      "name": "rateForCurrency",
      "outputs": [
        {
          "internalType": "uint256",
          "name": "",
          "type": "uint256"
        }
      ],
      "payable": false,
      "stateMutability": "view",
      "type": "function"
    },
    {
      "constant": true,
      "inputs": [
        {
          "internalType": "bytes32",
          "name": "currencyKey",
          "type": "bytes32"
        },
        {
          "internalType": "uint256",
          "name": "numRounds",
          "type": "uint256"
        }
      ],
      "name": "ratesAndUpdatedTimeForCurrencyLastNRounds",
      "outputs": [
        {
          "internalType": "uint256[]",
          "name": "rates",
          "type": "uint256[]"
        },
        {
          "internalType": "uint256[]",
          "name": "times",
          "type": "uint256[]"
        }
      ],
      "payable": false,
      "stateMutability": "view",
      "type": "function"
    },
    {
      "constant": true,
      "inputs": [
        {
          "internalType": "bytes32[]",
          "name": "currencyKeys",
          "type": "bytes32[]"
        }
      ],
      "name": "ratesForCurrencies",
      "outputs": [
        {
          "internalType": "uint256[]",
          "name": "",
          "type": "uint256[]"
        }
      ],
      "payable": false,
      "stateMutability": "view",
      "type": "function"
    },
    {
      "constant": true,
      "inputs": [
        {
          "internalType": "bytes32",
          "name": "currencyKey",
          "type": "bytes32"
        }
      ],
      "name": "rateAndInvalid",
      "outputs": [
        {
          "internalType": "uint256",
          "name": "rate",
          "type": "uint256"
        },
        {
          "internalType": "bool",
          "name": "isInvalid",
          "type": "bool"
        }
      ],
      "payable": false,
      "stateMutability": "view",
      "type": "function"
    },
    {
      "constant": true,
      "inputs": [
        {
          "internalType": "bytes32[]",
          "name": "currencyKeys",
          "type": "bytes32[]"
        }
      ],
      "name": "ratesAndInvalidForCurrencies",
      "outputs": [
        {
          "internalType": "uint256[]",
          "name": "rates",
          "type": "uint256[]"
        },
        {
          "internalType": "bool",
          "name": "anyRateInvalid",
          "type": "bool"
        }
      ],
      "payable": false,
      "stateMutability": "view",
      "type": "function"
    },
    {
      "constant": true,
      "inputs": [
        {
          "internalType": "bytes32",
          "name": "currencyKey",
          "type": "bytes32"
        }
      ],
      "name": "rateIsStale",
      "outputs": [
        {
          "internalType": "bool",
          "name": "",
          "type": "bool"
        }
      ],
      "payable": false,
      "stateMutability": "view",
      "type": "function"
    },
    {
      "constant": true,
      "inputs": [
        {
          "internalType": "bytes32",
          "name": "currencyKey",
          "type": "bytes32"
        }
      ],
      "name": "rateIsInvalid",
      "outputs": [
        {
          "internalType": "bool",
          "name": "",
          "type": "bool"
        }
      ],
      "payable": false,
      "stateMutability": "view",
      "type": "function"
    },
    {
      "constant": true,
      "inputs": [
        {
          "internalType": "bytes32[]",
          "name": "currencyKeys",
          "type": "bytes32[]"
        }
      ],
      "name": "anyRateIsInvalid",
      "outputs": [
        {
          "internalType": "bool",
          "name": "",
          "type": "bool"
        }
      ],
      "payable": false,
      "stateMutability": "view",
      "type": "function"
    }
  ],
  "bytecode": "0x60806040523480156200001157600080fd5b5060405162002fd538038062002fd5833981810160405260a08110156200003757600080fd5b81019080805190602001909291908051906020019092919080519060200190929190805160405193929190846401000000008211156200007657600080fd5b838201915060208201858111156200008d57600080fd5b8251866020820283011164010000000082111715620000ab57600080fd5b8083526020830192505050908051906020019060200280838360005b83811015620000e4578082015181840152602081019050620000c7565b50505050905001604052602001805160405193929190846401000000008211156200010e57600080fd5b838201915060208201858111156200012557600080fd5b82518660208202830111640100000000821117156200014357600080fd5b8083526020830192505050908051906020019060200280838360005b838110156200017c5780820151818401526020810190506200015f565b5050505090500160405250505084600073ffffffffffffffffffffffffffffffffffffffff168173ffffffffffffffffffffffffffffffffffffffff1614156200022e576040517f08c379a00000000000000000000000000000000000000000000000000000000081526004018080602001828103825260198152602001807f4f776e657220616464726573732063616e6e6f7420626520300000000000000081525060200191505060405180910390fd5b806000806101000a81548173ffffffffffffffffffffffffffffffffffffffff021916908373ffffffffffffffffffffffffffffffffffffffff1602179055507fb532073b38c83145e3e5135377a08bf9aab55bc0fd7c1179cd4fb995d2a5159c600082604051808373ffffffffffffffffffffffffffffffffffffffff1673ffffffffffffffffffffffffffffffffffffffff1681526020018273ffffffffffffffffffffffffffffffffffffffff1673ffffffffffffffffffffffffffffffffffffffff1681526020019250505060405180910390a150805182511462000363576040517f08c379a000000000000000000000000000000000000000000000000000000000815260040180806020018281038252602f81526020018062002f35602f913960400191505060405180910390fd5b83600360006101000a81548173ffffffffffffffffffffffffffffffffffffffff021916908373ffffffffffffffffffffffffffffffffffffffff160217905550826004819055506200045f7f555344000000000000000000000000000000000000000000000000000000000073__SafeDecimalMath_______________________63907af6c06040518163ffffffff1660e01b815260040160206040518083038186803b1580156200041557600080fd5b505af41580156200042a573d6000803e3d6000fd5b505050506040513d60208110156200044157600080fd5b8101908080519060200190929190505050426200047e60201b60201c565b620004728282426200059760201b60201c565b505050505050620009cd565b60056000848152602001908152602001600020600081548092919060010191905055506040518060400160405280837affffffffffffffffffffffffffffffffffffffffffffffffffffff1681526020018264ffffffffff168152506002600085815260200190815260200160002060006005600087815260200190815260200160002054815260200190815260200160002060008201518160000160006101000a8154817affffffffffffffffffffffffffffffffffffffffffffffffffffff02191690837affffffffffffffffffffffffffffffffffffffffffffffffffffff160217905550602082015181600001601b6101000a81548164ffffffffff021916908364ffffffffff160217905550905050505050565b60008251845114620005f5576040517f08c379a000000000000000000000000000000000000000000000000000000000815260040180806020018281038252603881526020018062002f646038913960400191505060405180910390fd5b6001420182106200066e576040517f08c379a000000000000000000000000000000000000000000000000000000000815260040180806020018281038252601f8152602001807f54696d6520697320746f6f2066617220696e746f20746865206675747572650081525060200191505060405180910390fd5b60008090505b84518110156200075e5760008582815181106200068d57fe5b602002602001015190506000858381518110620006a657fe5b6020026020010151141562000707576040517f08c379a000000000000000000000000000000000000000000000000000000000815260040180806020018281038252603981526020018062002f9c6039913960400191505060405180910390fd5b62000718816200082f60201b60201c565b84101562000727575062000750565b6200074e818684815181106200073957fe5b6020026020010151866200047e60201b60201c565b505b808060010191505062000674565b507f1bc0fc8997efa076f59b5ef02c315bc5390f7a6d24d661ce12128c01a3b0ba578484604051808060200180602001838103835285818151815260200191508051906020019060200280838360005b83811015620007cb578082015181840152602081019050620007ae565b50505050905001838103825284818151815260200191508051906020019060200280838360005b838110156200080f578082015181840152602081019050620007f2565b5050505090500194505050505060405180910390a1600190509392505050565b600062000842826200085460201b60201c565b6020015164ffffffffff169050919050565b6200085e6200098f565b600060056000848152602001908152602001600020549050620008806200098f565b6002600085815260200190815260200160002060008381526020019081526020016000206040518060400160405290816000820160009054906101000a90047affffffffffffffffffffffffffffffffffffffffffffffffffffff167affffffffffffffffffffffffffffffffffffffffffffffffffffff167affffffffffffffffffffffffffffffffffffffffffffffffffffff16815260200160008201601b9054906101000a900464ffffffffff1664ffffffffff1664ffffffffff16815250509050604051806040016040528082600001517affffffffffffffffffffffffffffffffffffffffffffffffffffff168152602001826020015164ffffffffff1681525092505050919050565b604051806040016040528060007affffffffffffffffffffffffffffffffffffffffffffffffffffff168152602001600064ffffffffff1681525090565b61255880620009dd6000396000f3fe608060405234801561001057600080fd5b50600436106101ce5760003560e01c806379ba509711610104578063935f4abd116100a2578063c8e5bbd511610071578063c8e5bbd514610b1b578063ce8480ea14610bf4578063d9ac9edd14610c36578063fdadbc7e14610c54576101ce565b8063935f4abd146108d9578063ac82f6081461091b578063bfa005ce1461095d578063c2c8a67614610a4d576101ce565b80637adbf973116100de5780637adbf9731461079d5780637dc0d1d0146107e15780638295016a1461082b5780638da5cb5b1461088f576101ce565b806379ba50971461072357806379cb657a1461072d5780637a018a1e1461075b576101ce565b80632528f0fe116101715780634308a94f1161014b5780634308a94f1461060c578063459388491461065557806353a47bb714610683578063654a60ac146106cd576101ce565b80632528f0fe14610487578063266da16b146104cd5780632d7371e114610537576101ce565b80630c71cd23116101ad5780630c71cd23146103785780630ee4951b146103c5578063109e46a2146103e35780631627540c14610443576101ce565b80629919c0146101d357806305a046e5146102195780630a7d36d1146102e7575b600080fd5b6101ff600480360360208110156101e957600080fd5b8101908080359060200190929190505050610ca7565b604051808215151515815260200191505060405180910390f35b6102906004803603602081101561022f57600080fd5b810190808035906020019064010000000081111561024c57600080fd5b82018360208201111561025e57600080fd5b8035906020019184602083028401116401000000008311171561028057600080fd5b9091929391929390505050610cc1565b6040518080602001828103825283818151815260200191508051906020019060200280838360005b838110156102d35780820151818401526020810190506102b8565b505050509050019250505060405180910390f35b61035e600480360360208110156102fd57600080fd5b810190808035906020019064010000000081111561031a57600080fd5b82018360208201111561032c57600080fd5b8035906020019184602083028401116401000000008311171561034e57600080fd5b9091929391929390505050610d55565b604051808215151515815260200191505060405180910390f35b6103a46004803603602081101561038e57600080fd5b8101908080359060200190929190505050610db9565b60405180838152602001821515151581526020019250505060405180910390f35b6103cd610e1a565b6040518082815260200191505060405180910390f35b61042d600480360360808110156103f957600080fd5b8101908080359060200190929190803590602001909291908035906020019092919080359060200190929190505050610e20565b6040518082815260200191505060405180910390f35b6104856004803603602081101561045957600080fd5b81019080803573ffffffffffffffffffffffffffffffffffffffff169060200190929190505050610e80565b005b6104b36004803603602081101561049d57600080fd5b8101908080359060200190929190505050610f2f565b604051808215151515815260200191505060405180910390f35b610521600480360360a08110156104e357600080fd5b810190808035906020019092919080359060200190929190803590602001909291908035906020019092919080359060200190929190505050610f49565b6040518082815260200191505060405180910390f35b61056d6004803603604081101561054d57600080fd5b810190808035906020019092919080359060200190929190505050610fc0565b604051808060200180602001838103835285818151815260200191508051906020019060200280838360005b838110156105b4578082015181840152602081019050610599565b50505050905001838103825284818151815260200191508051906020019060200280838360005b838110156105f65780820151818401526020810190506105db565b5050505090500194505050505060405180910390f35b6106386004803603602081101561062257600080fd5b81019080803590602001909291905050506110b2565b604051808381526020018281526020019250505060405180910390f35b6106816004803603602081101561066b57600080fd5b8101908080359060200190929190505050611106565b005b61068b61126a565b604051808273ffffffffffffffffffffffffffffffffffffffff1673ffffffffffffffffffffffffffffffffffffffff16815260200191505060405180910390f35b61070d600480360360608110156106e357600080fd5b81019080803590602001909291908035906020019092919080359060200190929190505050611290565b6040518082815260200191505060405180910390f35b61072b6112ab565b005b6107596004803603602081101561074357600080fd5b81019080803590602001909291905050506114d1565b005b6107876004803603602081101561077157600080fd5b810190808035906020019092919050505061151c565b6040518082815260200191505060405180910390f35b6107df600480360360208110156107b357600080fd5b81019080803573ffffffffffffffffffffffffffffffffffffffff16906020019092919050505061152e565b005b6107e96115ff565b604051808273ffffffffffffffffffffffffffffffffffffffff1673ffffffffffffffffffffffffffffffffffffffff16815260200191505060405180910390f35b61086b6004803603606081101561084157600080fd5b81019080803590602001909291908035906020019092919080359060200190929190505050611625565b60405180848152602001838152602001828152602001935050505060405180910390f35b610897611644565b604051808273ffffffffffffffffffffffffffffffffffffffff1673ffffffffffffffffffffffffffffffffffffffff16815260200191505060405180910390f35b610905600480360360208110156108ef57600080fd5b8101908080359060200190929190505050611669565b6040518082815260200191505060405180910390f35b6109476004803603602081101561093157600080fd5b8101908080359060200190929190505050611681565b6040518082815260200191505060405180910390f35b610a336004803603606081101561097357600080fd5b810190808035906020019064010000000081111561099057600080fd5b8201836020820111156109a257600080fd5b803590602001918460208302840111640100000000831117156109c457600080fd5b9091929391929390803590602001906401000000008111156109e557600080fd5b8201836020820111156109f757600080fd5b80359060200191846020830284011164010000000083111715610a1957600080fd5b9091929391929390803590602001909291905050506116b4565b604051808215151515815260200191505060405180910390f35b610ac460048036036020811015610a6357600080fd5b8101908080359060200190640100000000811115610a8057600080fd5b820183602082011115610a9257600080fd5b80359060200191846020830284011164010000000083111715610ab457600080fd5b9091929391929390505050611756565b6040518080602001828103825283818151815260200191508051906020019060200280838360005b83811015610b07578082015181840152602081019050610aec565b505050509050019250505060405180910390f35b610b9260048036036020811015610b3157600080fd5b8101908080359060200190640100000000811115610b4e57600080fd5b820183602082011115610b6057600080fd5b80359060200191846020830284011164010000000083111715610b8257600080fd5b90919293919293905050506117ea565b604051808060200183151515158152602001828103825284818151815260200191508051906020019060200280838360005b83811015610bdf578082015181840152602081019050610bc4565b50505050905001935050505060405180910390f35b610c2060048036036020811015610c0a57600080fd5b81019080803590602001909291905050506118d3565b6040518082815260200191505060405180910390f35b610c3e6118e5565b6040518082815260200191505060405180910390f35b610c8a60048036036040811015610c6a57600080fd5b8101908080359060200190929190803590602001909291905050506118ef565b604051808381526020018281526020019250505060405180910390f35b6000610cba82610cb56118e5565b611907565b9050919050565b60608083839050604051908082528060200260200182016040528015610cf65781602001602082028038833980820191505090505b50905060008090505b84849050811015610d4a57610d25858583818110610d1957fe5b90506020020135611923565b828281518110610d3157fe5b6020026020010181815250508080600101915050610cff565b508091505092915050565b600080610d606118e5565b905060008090505b84849050811015610dac57610d8f858583818110610d8257fe5b9050602002013583611907565b15610d9f57600192505050610db3565b8080600101915050610d68565b5060009150505b92915050565b600080610dc46123c8565b610dcd84611940565b90508060000151610df0610ddf6118e5565b836020015164ffffffffff16611a77565b817affffffffffffffffffffffffffffffffffffffffffffffffffffff1691509250925050915091565b60045481565b60008084905060008090505b600115610e7257610e408760018401611a96565b9050809150506000811480610e56575083850181115b15610e65578192505050610e78565b8180600101925050610e2c565b81925050505b949350505050565b610e88611ba6565b80600160006101000a81548173ffffffffffffffffffffffffffffffffffffffff021916908373ffffffffffffffffffffffffffffffffffffffff1602179055507f906a1c6bd7e3091ea86693dd029a831c19049ce77f1dce2ce0bab1cacbabce2281604051808273ffffffffffffffffffffffffffffffffffffffff1673ffffffffffffffffffffffffffffffffffffffff16815260200191505060405180910390a150565b6000610f4282610f3d6118e5565b611907565b9050919050565b600083861415610f5b57849050610fb7565b6000610f678785611a96565b5090506000610f768685611a96565b5090506000811415610f8d57600092505050610fb7565b610fb281610fa4848a611c4d90919063ffffffff16565b611c6990919063ffffffff16565b925050505b95945050505050565b60608082604051908082528060200260200182016040528015610ff25781602001602082028038833980820191505090505b509150826040519080825280602002602001820160405280156110245781602001602082028038833980820191505090505b509050600061103285611c85565b905060008090505b848110156110a85761104c8683611a96565b85838151811061105857fe5b6020026020010185848151811061106b57fe5b602002602001018281525082815250505060008214156110925783839350935050506110ab565b818060019003925050808060010191505061103a565b50505b9250929050565b6000806110bd6123c8565b6110c684611940565b905080600001518160200151817affffffffffffffffffffffffffffffffffffffffffffffffffffff1691508064ffffffffff1690509250925050915091565b61110e611ca2565b600061111982611d4a565b1161118c576040517f08c379a000000000000000000000000000000000000000000000000000000000815260040180806020018281038252600c8152602001807f52617465206973207a65726f000000000000000000000000000000000000000081525060200191505060405180910390fd5b60026000828152602001908152602001600020600060056000848152602001908152602001600020548152602001908152602001600020600080820160006101000a8154907affffffffffffffffffffffffffffffffffffffffffffffffffffff021916905560008201601b6101000a81549064ffffffffff021916905550506005600082815260200190815260200160002060008154809291906001900391905055507fe69d655565c7ff1353d8eaeea62fb7904fa9696987431ec351be288c865f1ae1816040518082815260200191505060405180910390a150565b600160009054906101000a900473ffffffffffffffffffffffffffffffffffffffff1681565b600061129d848484611d7d565b905050809150509392505050565b600160009054906101000a900473ffffffffffffffffffffffffffffffffffffffff1673ffffffffffffffffffffffffffffffffffffffff163373ffffffffffffffffffffffffffffffffffffffff1614611351576040517f08c379a00000000000000000000000000000000000000000000000000000000081526004018080602001828103825260358152602001806124076035913960400191505060405180910390fd5b7fb532073b38c83145e3e5135377a08bf9aab55bc0fd7c1179cd4fb995d2a5159c6000809054906101000a900473ffffffffffffffffffffffffffffffffffffffff16600160009054906101000a900473ffffffffffffffffffffffffffffffffffffffff16604051808373ffffffffffffffffffffffffffffffffffffffff1673ffffffffffffffffffffffffffffffffffffffff1681526020018273ffffffffffffffffffffffffffffffffffffffff1673ffffffffffffffffffffffffffffffffffffffff1681526020019250505060405180910390a1600160009054906101000a900473ffffffffffffffffffffffffffffffffffffffff166000806101000a81548173ffffffffffffffffffffffffffffffffffffffff021916908373ffffffffffffffffffffffffffffffffffffffff1602179055506000600160006101000a81548173ffffffffffffffffffffffffffffffffffffffff021916908373ffffffffffffffffffffffffffffffffffffffff160217905550565b6114d9611ba6565b806004819055507f16529d8c407b08938da67de7fa4319199baffce4f5d1971f812cc770b0237e666004546040518082815260200191505060405180910390a150565b600061152782611c85565b9050919050565b611536611ba6565b80600360006101000a81548173ffffffffffffffffffffffffffffffffffffffff021916908373ffffffffffffffffffffffffffffffffffffffff1602179055507f3df77beb5db05fcdd70a30fc8adf3f83f9501b68579455adbd100b8180940394600360009054906101000a900473ffffffffffffffffffffffffffffffffffffffff16604051808273ffffffffffffffffffffffffffffffffffffffff1673ffffffffffffffffffffffffffffffffffffffff16815260200191505060405180910390a150565b600360009054906101000a900473ffffffffffffffffffffffffffffffffffffffff1681565b6000806000611635868686611d7d565b92509250925093509350939050565b6000809054906101000a900473ffffffffffffffffffffffffffffffffffffffff1681565b60056020528060005260406000206000915090505481565b600061168c82611940565b600001517affffffffffffffffffffffffffffffffffffffffffffffffffffff169050919050565b60006116be611ca2565b61174b868680806020026020016040519081016040528093929190818152602001838360200280828437600081840152601f19601f82011690508083019250505050505050858580806020026020016040519081016040528093929190818152602001838360200280828437600081840152601f19601f8201169050808301925050505050505084611de6565b905095945050505050565b6060808383905060405190808252806020026020018201604052801561178b5781602001602082028038833980820191505090505b50905060008090505b848490508110156117df576117ba8585838181106117ae57fe5b90506020020135611d4a565b8282815181106117c657fe5b6020026020010181815250508080600101915050611794565b508091505092915050565b60606000838390506040519080825280602002602001820160405280156118205781602001602082028038833980820191505090505b509150600061182d6118e5565b905060008090505b858590508110156118ca576118486123c8565b61186387878481811061185757fe5b90506020020135611940565b905080600001517affffffffffffffffffffffffffffffffffffffffffffffffffffff1685838151811061189357fe5b602002602001018181525050836118bc576118b983826020015164ffffffffff16611a77565b93505b508080600101915050611835565b50509250929050565b60006118de82611923565b9050919050565b6000600454905090565b6000806118fc8484611a96565b915091509250929050565b600061191b8261191685611923565b611a77565b905092915050565b600061192e82611940565b6020015164ffffffffff169050919050565b6119486123c8565b6000600560008481526020019081526020016000205490506119686123c8565b6002600085815260200190815260200160002060008381526020019081526020016000206040518060400160405290816000820160009054906101000a90047affffffffffffffffffffffffffffffffffffffffffffffffffffff167affffffffffffffffffffffffffffffffffffffffffffffffffffff167affffffffffffffffffffffffffffffffffffffffffffffffffffff16815260200160008201601b9054906101000a900464ffffffffff1664ffffffffff1664ffffffffff16815250509050604051806040016040528082600001517affffffffffffffffffffffffffffffffffffffffffffffffffffff168152602001826020015164ffffffffff1681525092505050919050565b600042611a8d848461205e90919063ffffffff16565b10905092915050565b600080611aa16123c8565b6002600086815260200190815260200160002060008581526020019081526020016000206040518060400160405290816000820160009054906101000a90047affffffffffffffffffffffffffffffffffffffffffffffffffffff167affffffffffffffffffffffffffffffffffffffffffffffffffffff167affffffffffffffffffffffffffffffffffffffffffffffffffffff16815260200160008201601b9054906101000a900464ffffffffff1664ffffffffff1664ffffffffff1681525050905080600001518160200151817affffffffffffffffffffffffffffffffffffffffffffffffffffff1691508064ffffffffff16905092509250509250929050565b6000809054906101000a900473ffffffffffffffffffffffffffffffffffffffff1673ffffffffffffffffffffffffffffffffffffffff163373ffffffffffffffffffffffffffffffffffffffff1614611c4b576040517f08c379a000000000000000000000000000000000000000000000000000000000815260040180806020018281038252602f815260200180612463602f913960400191505060405180910390fd5b565b6000611c618383601260ff16600a0a6120e6565b905092915050565b6000611c7d8383601260ff16600a0a61213f565b905092915050565b600060056000838152602001908152602001600020549050919050565b600360009054906101000a900473ffffffffffffffffffffffffffffffffffffffff1673ffffffffffffffffffffffffffffffffffffffff163373ffffffffffffffffffffffffffffffffffffffff1614611d48576040517f08c379a000000000000000000000000000000000000000000000000000000000815260040180806020018281038252602781526020018061243c6027913960400191505060405180910390fd5b565b6000611d5582611940565b600001517affffffffffffffffffffffffffffffffffffffffffffffffffffff169050919050565b6000806000611d8b86611d4a565b915083861415611da057819050849250611ddd565b611da984611d4a565b90506000811115611ddc57611dd981611dcb8488611c4d90919063ffffffff16565b611c6990919063ffffffff16565b92505b5b93509350939050565b60008251845114611e42576040517f08c379a00000000000000000000000000000000000000000000000000000000081526004018080602001828103825260388152602001806124b36038913960400191505060405180910390fd5b600142018210611eba576040517f08c379a000000000000000000000000000000000000000000000000000000000815260040180806020018281038252601f8152602001807f54696d6520697320746f6f2066617220696e746f20746865206675747572650081525060200191505060405180910390fd5b60008090505b8451811015611f91576000858281518110611ed757fe5b602002602001015190506000858381518110611eef57fe5b60200260200101511415611f4e576040517f08c379a00000000000000000000000000000000000000000000000000000000081526004018080602001828103825260398152602001806124eb6039913960400191505060405180910390fd5b611f5781611923565b841015611f645750611f84565b611f8281868481518110611f7457fe5b60200260200101518661219a565b505b8080600101915050611ec0565b507f1bc0fc8997efa076f59b5ef02c315bc5390f7a6d24d661ce12128c01a3b0ba578484604051808060200180602001838103835285818151815260200191508051906020019060200280838360005b83811015611ffc578082015181840152602081019050611fe1565b50505050905001838103825284818151815260200191508051906020019060200280838360005b8381101561203e578082015181840152602081019050612023565b5050505090500194505050505060405180910390a1600190509392505050565b6000808284019050838110156120dc576040517f08c379a000000000000000000000000000000000000000000000000000000000815260040180806020018281038252601b8152602001807f536166654d6174683a206164646974696f6e206f766572666c6f77000000000081525060200191505060405180910390fd5b8091505092915050565b600080600a83816120f357fe5b0461210785876122b390919063ffffffff16565b8161210e57fe5b0490506005600a828161211d57fe5b061061212a57600a810190505b600a818161213457fe5b049150509392505050565b60008061216a8461215c600a8602886122b390919063ffffffff16565b61233990919063ffffffff16565b90506005600a828161217857fe5b061061218557600a810190505b600a818161218f57fe5b049150509392505050565b60056000848152602001908152602001600020600081548092919060010191905055506040518060400160405280837affffffffffffffffffffffffffffffffffffffffffffffffffffff1681526020018264ffffffffff168152506002600085815260200190815260200160002060006005600087815260200190815260200160002054815260200190815260200160002060008201518160000160006101000a8154817affffffffffffffffffffffffffffffffffffffffffffffffffffff02191690837affffffffffffffffffffffffffffffffffffffffffffffffffffff160217905550602082015181600001601b6101000a81548164ffffffffff021916908364ffffffffff160217905550905050505050565b6000808314156122c65760009050612333565b60008284029050828482816122d757fe5b041461232e576040517f08c379a00000000000000000000000000000000000000000000000000000000081526004018080602001828103825260218152602001806124926021913960400191505060405180910390fd5b809150505b92915050565b60008082116123b0576040517f08c379a000000000000000000000000000000000000000000000000000000000815260040180806020018281038252601a8152602001807f536166654d6174683a206469766973696f6e206279207a65726f00000000000081525060200191505060405180910390fd5b60008284816123bb57fe5b0490508091505092915050565b604051806040016040528060007affffffffffffffffffffffffffffffffffffffffffffffffffffff168152602001600064ffffffffff168152509056fe596f75206d757374206265206e6f6d696e61746564206265666f726520796f752063616e20616363657074206f776e6572736869704f6e6c7920746865206f7261636c652063616e20706572666f726d207468697320616374696f6e4f6e6c792074686520636f6e7472616374206f776e6572206d617920706572666f726d207468697320616374696f6e536166654d6174683a206d756c7469706c69636174696f6e206f766572666c6f7743757272656e6379206b6579206172726179206c656e677468206d757374206d61746368207261746573206172726179206c656e6774682e5a65726f206973206e6f7420612076616c696420726174652c20706c656173652063616c6c2064656c6574655261746520696e73746561642ea265627a7a72315820547ea72e3d309fd7f5e7d42e354b74ed03ed861af24c9b42597e70b86886f45a64736f6c6343000510003243757272656e6379206b6579206c656e67746820616e642072617465206c656e677468206d757374206d617463682e43757272656e6379206b6579206172726179206c656e677468206d757374206d61746368207261746573206172726179206c656e6774682e5a65726f206973206e6f7420612076616c696420726174652c20706c656173652063616c6c2064656c6574655261746520696e73746561642e",
  "source": "pragma solidity ^0.5.16;\n\n// Inheritance\nimport \"./Owned.sol\";\nimport \"./interfaces/IExchangeRates.sol\";\n\n// Libraries\nimport \"./SafeDecimalMath.sol\";\n\n\ncontract ExchangeRates is Owned, IExchangeRates {\n    using SafeMath for uint;\n    using SafeDecimalMath for uint;\n\n    // Exchange rates and update times stored by currency code, e.g. 'CFX', or 'USDT'\n    mapping(bytes32 => mapping(uint => RateAndUpdatedTime)) private _rates;\n\n    // The address of the oracle which pushes rate updates to this contract\n    address public oracle;\n\n    // Stale time for rates\n    uint public rateStalePeriod;\n\n    // Do not allow the oracle to submit times any further forward into the future than this constant.\n    uint private constant ORACLE_FUTURE_LIMIT = 1 seconds;\n\n    mapping(bytes32 => uint) public currentRoundForRate;\n\n    //\n    // ========== CONSTRUCTOR ==========\n\n    constructor(\n        address _owner,\n        address _oracle,\n        uint _rateStalePeriod,\n        bytes32[] memory _currencyKeys,\n        uint[] memory _newRates\n    ) public Owned(_owner) {\n        require(_currencyKeys.length == _newRates.length, \"Currency key length and rate length must match.\");\n\n        oracle = _oracle;\n        rateStalePeriod = _rateStalePeriod;\n        _setRate(\"USD\", SafeDecimalMath.unit(), now);\n\n        internalUpdateRates(_currencyKeys, _newRates, now);\n    }\n\n    /* ========== SETTERS ========== */\n\n    function setOracle(address _oracle) external onlyOwner {\n        oracle = _oracle;\n        emit OracleUpdated(oracle);\n    }\n\n    function setRateStalePeriod(uint _rateStalePeriod) external onlyOwner {\n        rateStalePeriod = _rateStalePeriod;\n        emit RateStalePeriodUpdated(rateStalePeriod);\n    }\n\n    /* ========== MUTATIVE FUNCTIONS ========== */\n\n    function updateRates(\n        bytes32[] calldata currencyKeys,\n        uint[] calldata newRates,\n        uint timeSent\n    ) external onlyOracle returns (bool) {\n        return internalUpdateRates(currencyKeys, newRates, timeSent);\n    }\n\n    function deleteRate(bytes32 currencyKey) external onlyOracle {\n        require(_getRate(currencyKey) > 0, \"Rate is zero\");\n\n        delete _rates[currencyKey][currentRoundForRate[currencyKey]];\n\n        currentRoundForRate[currencyKey]--;\n\n        emit RateDeleted(currencyKey);\n    }\n\n    /* ========== VIEWS ========== */\n\n    function getRateStalePeriod() public view returns (uint) {\n        return rateStalePeriod;\n    }\n\n    function rateAndUpdatedTime(bytes32 currencyKey) external view returns (uint rate, uint time) {\n        RateAndUpdatedTime memory rateAndTime = _getRateAndUpdatedTime(currencyKey);\n        return (rateAndTime.rate, rateAndTime.time);\n    }\n\n    function getLastRoundIdBeforeElapsedSecs(\n        bytes32 currencyKey,\n        uint startingRoundId,\n        uint startingTimestamp,\n        uint timediff\n    ) external view returns (uint) {\n        uint roundId = startingRoundId;\n        uint nextTimestamp = 0;\n        while (true) {\n            (, nextTimestamp) = _getRateAndTimestampAtRound(currencyKey, roundId + 1);\n            // if there's no new round, then the previous roundId was the latest\n            if (nextTimestamp == 0 || nextTimestamp > startingTimestamp + timediff) {\n                return roundId;\n            }\n            roundId++;\n        }\n        return roundId;\n    }\n\n    function getCurrentRoundId(bytes32 currencyKey) external view returns (uint) {\n        return _getCurrentRoundId(currencyKey);\n    }\n\n    function effectiveValueAtRound(\n        bytes32 sourceCurrencyKey,\n        uint sourceAmount,\n        bytes32 destinationCurrencyKey,\n        uint roundIdForSrc,\n        uint roundIdForDest\n    ) external view returns (uint value) {\n        // If there's no change in the currency, then just return the amount they gave us\n        if (sourceCurrencyKey == destinationCurrencyKey) return sourceAmount;\n\n        (uint srcRate, ) = _getRateAndTimestampAtRound(sourceCurrencyKey, roundIdForSrc);\n        (uint destRate, ) = _getRateAndTimestampAtRound(destinationCurrencyKey, roundIdForDest);\n        if (destRate == 0) {\n            // prevent divide-by 0 error\n            return 0;\n        }\n        // Calculate the effective value by going from source -> USD -> destination\n        value = sourceAmount.multiplyDecimalRound(srcRate).divideDecimalRound(destRate);\n    }\n\n    function rateAndTimestampAtRound(bytes32 currencyKey, uint roundId) external view returns (uint rate, uint time) {\n        return _getRateAndTimestampAtRound(currencyKey, roundId);\n    }\n\n    function lastRateUpdateTimes(bytes32 currencyKey) external view returns (uint256) {\n        return _getUpdatedTime(currencyKey);\n    }\n\n    function lastRateUpdateTimesForCurrencies(bytes32[] calldata currencyKeys) external view returns (uint[] memory) {\n        uint[] memory lastUpdateTimes = new uint[](currencyKeys.length);\n\n        for (uint i = 0; i < currencyKeys.length; i++) {\n            lastUpdateTimes[i] = _getUpdatedTime(currencyKeys[i]);\n        }\n\n        return lastUpdateTimes;\n    }\n\n    function effectiveValue(\n        bytes32 sourceCurrencyKey,\n        uint sourceAmount,\n        bytes32 destinationCurrencyKey\n    ) external view returns (uint value) {\n        (value, , ) = _effectiveValueAndRates(sourceCurrencyKey, sourceAmount, destinationCurrencyKey);\n    }\n\n    function effectiveValueAndRates(\n        bytes32 sourceCurrencyKey,\n        uint sourceAmount,\n        bytes32 destinationCurrencyKey\n    )\n        external\n        view\n        returns (\n            uint value,\n            uint sourceRate,\n            uint destinationRate\n        )\n    {\n        return _effectiveValueAndRates(sourceCurrencyKey, sourceAmount, destinationCurrencyKey);\n    }\n\n    function rateForCurrency(bytes32 currencyKey) external view returns (uint) {\n        return _getRateAndUpdatedTime(currencyKey).rate;\n    }\n\n    function ratesAndUpdatedTimeForCurrencyLastNRounds(bytes32 currencyKey, uint numRounds)\n        external\n        view\n        returns (uint[] memory rates, uint[] memory times)\n    {\n        rates = new uint[](numRounds);\n        times = new uint[](numRounds);\n\n        uint roundId = _getCurrentRoundId(currencyKey);\n        for (uint i = 0; i < numRounds; i++) {\n            (rates[i], times[i]) = _getRateAndTimestampAtRound(currencyKey, roundId);\n\n            if (roundId == 0) {\n                // if we hit the last round, then return what we have\n                return (rates, times);\n            } else {\n                roundId--;\n            }\n        }\n    }\n\n    function ratesForCurrencies(bytes32[] calldata currencyKeys) external view returns (uint[] memory) {\n        uint[] memory _localRates = new uint[](currencyKeys.length);\n\n        for (uint i = 0; i < currencyKeys.length; i++) {\n            _localRates[i] = _getRate(currencyKeys[i]);\n        }\n\n        return _localRates;\n    }\n\n    function rateAndInvalid(bytes32 currencyKey) external view returns (uint rate, bool isInvalid) {\n        RateAndUpdatedTime memory rateAndTime = _getRateAndUpdatedTime(currencyKey);\n\n        return (\n            rateAndTime.rate,\n            _rateIsStaleWithTime(getRateStalePeriod(), rateAndTime.time)\n        );\n    }\n\n    function ratesAndInvalidForCurrencies(bytes32[] calldata currencyKeys)\n        external\n        view\n        returns (uint[] memory rates, bool anyRateInvalid)\n    {\n        rates = new uint[](currencyKeys.length);\n\n        uint256 _rateStalePeriod = getRateStalePeriod();\n\n        for (uint i = 0; i < currencyKeys.length; i++) {\n            // do one lookup of the rate & time to minimize gas\n            RateAndUpdatedTime memory rateEntry = _getRateAndUpdatedTime(currencyKeys[i]);\n            rates[i] = rateEntry.rate;\n            if (!anyRateInvalid) {\n                anyRateInvalid = _rateIsStaleWithTime(_rateStalePeriod, rateEntry.time);\n            }\n        }\n    }\n\n    function rateIsStale(bytes32 currencyKey) external view returns (bool) {\n        return _rateIsStale(currencyKey, getRateStalePeriod());\n    }\n\n    function rateIsInvalid(bytes32 currencyKey) external view returns (bool) {\n        return _rateIsStale(currencyKey, getRateStalePeriod());\n    }\n\n    function anyRateIsInvalid(bytes32[] calldata currencyKeys) external view returns (bool) {\n        // Loop through each key and check whether the data point is stale.\n\n        uint256 _rateStalePeriod = getRateStalePeriod();\n\n        for (uint i = 0; i < currencyKeys.length; i++) {\n            if (_rateIsStale(currencyKeys[i], _rateStalePeriod)) {\n                return true;\n            }\n        }\n\n        return false;\n    }\n\n    /* ========== INTERNAL FUNCTIONS ========== */\n\n    function _setRate(\n        bytes32 currencyKey,\n        uint256 rate,\n        uint256 time\n    ) internal {\n        // Note: this will effectively start the rounds at 1, which matches Chainlink's Agggregators\n        currentRoundForRate[currencyKey]++;\n\n        _rates[currencyKey][currentRoundForRate[currencyKey]] = RateAndUpdatedTime({\n            rate: uint216(rate),\n            time: uint40(time)\n        });\n    }\n\n    function internalUpdateRates(\n        bytes32[] memory currencyKeys,\n        uint[] memory newRates,\n        uint timeSent\n    ) internal returns (bool) {\n        require(currencyKeys.length == newRates.length, \"Currency key array length must match rates array length.\");\n        require(timeSent < (now + ORACLE_FUTURE_LIMIT), \"Time is too far into the future\");\n\n        // Loop through each key and perform update.\n        for (uint i = 0; i < currencyKeys.length; i++) {\n            bytes32 currencyKey = currencyKeys[i];\n\n            // Should not set any rate to zero ever, as no asset will ever be\n            // truely worthless and still valid. In this scenario, we should\n            // delete the rate and remove it from the system.\n            require(newRates[i] != 0, \"Zero is not a valid rate, please call deleteRate instead.\");\n\n            // We should only update the rate if it's at least the same age as the last rate we've got.\n            if (timeSent < _getUpdatedTime(currencyKey)) {\n                continue;\n            }\n\n            // Ok, go ahead with the update.\n            _setRate(currencyKey, newRates[i], timeSent);\n        }\n\n        emit RatesUpdated(currencyKeys, newRates);\n\n        return true;\n    }\n\n    function removeFromArray(bytes32 entry, bytes32[] storage array) internal returns (bool) {\n        for (uint i = 0; i < array.length; i++) {\n            if (array[i] == entry) {\n                delete array[i];\n\n                // Copy the last key into the place of the one we just deleted\n                // If there's only one key, this is array[0] = array[0].\n                // If we're deleting the last one, it's also a NOOP in the same way.\n                array[i] = array[array.length - 1];\n\n                // Decrease the size of the array by one.\n                array.length--;\n\n                return true;\n            }\n        }\n        return false;\n    }\n\n    function _getRateAndUpdatedTime(bytes32 currencyKey) internal view returns (RateAndUpdatedTime memory) {\n        uint roundId = currentRoundForRate[currencyKey];\n        RateAndUpdatedTime memory entry = _rates[currencyKey][roundId];\n        return RateAndUpdatedTime({rate: uint216(entry.rate), time: entry.time});\n    }\n\n    function _getCurrentRoundId(bytes32 currencyKey) internal view returns (uint) {\n        return currentRoundForRate[currencyKey];\n    }\n\n    function _getRateAndTimestampAtRound(bytes32 currencyKey, uint roundId) internal view \n        returns (uint rate, uint time) {\n        RateAndUpdatedTime memory update = _rates[currencyKey][roundId];\n        return (update.rate, update.time);\n    }\n\n    function _getRate(bytes32 currencyKey) internal view returns (uint256) {\n        return _getRateAndUpdatedTime(currencyKey).rate;\n    }\n\n    function _getUpdatedTime(bytes32 currencyKey) internal view returns (uint256) {\n        return _getRateAndUpdatedTime(currencyKey).time;\n    }\n\n    function _effectiveValueAndRates(\n        bytes32 sourceCurrencyKey,\n        uint sourceAmount,\n        bytes32 destinationCurrencyKey\n    )\n        internal\n        view\n        returns (\n            uint value,\n            uint sourceRate,\n            uint destinationRate\n        )\n    {\n        sourceRate = _getRate(sourceCurrencyKey);\n        // If there's no change in the currency, then just return the amount they gave us\n        if (sourceCurrencyKey == destinationCurrencyKey) {\n            destinationRate = sourceRate;\n            value = sourceAmount;\n        } else {\n            // Calculate the effective value by going from source -> USD -> destination\n            destinationRate = _getRate(destinationCurrencyKey);\n            // prevent divide-by 0 error (this happens if the dest is not a valid rate)\n            if (destinationRate > 0) {\n                value = sourceAmount.multiplyDecimalRound(sourceRate).divideDecimalRound(destinationRate);\n            }\n        }\n    }\n\n    function _rateIsStale(bytes32 currencyKey, uint _rateStalePeriod) internal view returns (bool) {\n        return _rateIsStaleWithTime(_rateStalePeriod, _getUpdatedTime(currencyKey));\n    }\n\n    function _rateIsStaleWithTime(uint _rateStalePeriod, uint _time) internal view returns (bool) {\n        return _time.add(_rateStalePeriod) < now;\n    }\n\n    /* ========== MODIFIERS ========== */\n\n    modifier onlyOracle {\n        _onlyOracle();\n        _;\n    }\n\n    function _onlyOracle() internal view {\n        require(msg.sender == oracle, \"Only the oracle can perform this action\");\n    }\n\n    /* ========== EVENTS ========== */\n\n    event OracleUpdated(address newOracle);\n    event RateStalePeriodUpdated(uint rateStalePeriod);\n    event RatesUpdated(bytes32[] currencyKeys, uint[] newRates);\n    event RateDeleted(bytes32 currencyKey);\n}",
  "sourcePath": "/Users/ypliu/Workspace/exchange-rate/contracts/ExchangeRates.sol",
  "compiler": {
    "name": "solc",
    "version": "0.5.16+commit.9c3226ce.Emscripten.clang"
  },
  "schemaVersion": "3.3.4",
  "updatedAt": "2021-04-13T12:06:38.280Z",
  "networkType": "conflux",
  "devdoc": {
    "methods": {}
  },
  "userdoc": {
    "methods": {}
  }
}